:1000000012C02CC02BC02AC029C028C027C026C0BF
:1000100025C024C023C022C021C020C01FC01EC0D4
:100020001DC01CC01BC011241FBECFE5D4E0DEBF25
:10003000CDBF10E0A0E6B0E0EEEDF2E002C005902A
:100040000D92AE36B107D9F720E0AEE6B0E001C0C0
:100050001D92A437B207E1F707D13FC1D1CF8F92EC
:100060009F92BF92CF92DF92EF92FF920F931F93D6
:10007000CF93DF931F92CDB7DEB76C014B0177FFB3
:1000800005C091948194910841E001C040E0B12CF9
:1000900021E08216920624F0BA9495948794F8CFC2
:1000A000C401880F991F60E8861691041CF4B3946C
:1000B0004C01F6CF0AEE12E0081B190BB801C4017F
:1000C0004983C4D0E12C22E0F22EB701681B790BE2
:1000D000C801BCD08C01BC01C401B8D0B701681BF9
:1000E000790BC801B3D049811B1434F402C0880FC6
:1000F000991FBA94E2F70DC0BB2059F0EB2DFF27F2
:10010000E1950CF4F0950E2E02C0959587950A9412
:10011000E2F7413019F4919581959109B6010F905C
:10012000DF91CF911F910F91FF90EF90DF90CF90D3
:10013000BF909F908F908AC0EF92FF920F931F9372
:10014000CF93DF9300D01F92CDB7DEB78C01103470
:1001500068F000399EE71907A4F41937B0F4143693
:10016000C0F41135C8F040E059E033C0103100F15F
:100170001133A8F41432B0F41931B8F040E055E06E
:1001800028C040E45BE020E125C040E05BE020E4E3
:1001900021C040E05AE01DC040E058E01AC040E0F5
:1001A00057E017C040E056E014C040E054E011C0F2
:1001B000193018F040E053E00CC0143018F040E063
:1001C00052E007C0111103C040E050E002C040E01F
:1001D00051E020E87A01E20EF11CB701C7012B8340
:1001E00049835A8333D02B8149815A8180179107E3
:1001F0000CF4A701269571F7CA010F900F900F908C
:10020000DF91CF911F910F91FF90EF90089590BDD6
:1002100089B988E18AB986E880BD08955D9BFECFE3
:100220008CB908955F9BFECF8CB108958BB1881F68
:100230008827881F0895CF93DF93EC018991882345
:1002400011F0ECDFFBCFDF91CF910895482F592FAC
:100250007502902D649F812D7403800D911D5603AE
:10026000800D911D1124089583E390E0D0DF7894F0
:10027000D9DF182FD7DFD82FD5DFC82FD3DF412FF5
:1002800050E0542F44274D0F511D5093730040935D
:1002900072002C2F30E0322F2227280F311D30938F
:1002A00071002093700060917000709171008091D6
:1002B000720090917300CADF90936F0080936E007C
:1002C00080916E0090916F00C0916E00D0916F0090
:0E02D000892FA4DF8C2FA2DFCBCFF894FFCFB5
:0E02DE0000000003000000000E0112010000ED
:00000001FF
